:020000040000FA
:10000000001000210D010000DF320000DF3200008F
:1000100000000000000000000000000000000000E0
:10002000000000000000000000000000DF320000BF
:100030000000000000000000DF320000DF3200009E
:100040002B0B000081040021890400219104002170
:100050009904002111750000C3320000A1040021A1
:10006000A9040021B1040021D1040021D9040021F8
:10007000B9040021C1040021C9040021C9040021E0
:10008000C9040021AF7D0000AF7D0000AF7D0000FE
:1000900000F0F8F800F03AF8103A02D378C878C1C6
:1000A000FAD8520701D330C830C101D504680C60BA
:1000B00070471FB5C046C0461FBD10B510BD704784
:1000C0000000000001010305080D151F2C3C4E62C5
:1000D000768A9CABB8C1C8CB0000000001010203C6
:1000E00005080D141C26323F4C58646D767C8082C6
:1000F0000023002400250026103A01D378C1FBD844
:10010000520700D330C100D50B60704700F0DEF815
:100110001146FFF7CEFF03F04DFE09F015FA00007F
:1001200000000000000000000000000000000112BC
:10013000435C68727A818689000000000101030532
:10014000080E151F2D3D4F63778B9EAEBAC4CACDE6
:1001500028AFE108181305000F0027005A00C1005E
:100160008301DF022D05DF087C0E8B167B21882F93
:100170009A4039548C69747FBC9442A822B9C8C68D
:10018000F7D0AAD7F8DA000028AFE108161301006B
:1001900003000A001F005900EB003902EA04F909C4
:1001A0009712EB1FA132784A0A66FA828C9E63B6D8
:1001B00017C964D6EDDEC1E3E0E5000087F20A0B63
:1001C0001813A8009D01FA02DD046B07CB0A250F66
:1001D000A0145B1B6E23E22CAE37B943D550C25E30
:1001E000336D297BA58836956EA0EBA958B171B601
:1001F00009B9000094D7100A18132F0081000B01D1
:10020000E90144034E0544086C0C0C126519A72241
:10021000E92D213B194A765AB96B1C7D0D8EE19D63
:10022000FBABD7B710C15BC78CCA000087F21A07B7
:100230000B120100DD003B12AA43C75D76698D7386
:100240004F7C4F833288B58A00000000C060C3082D
:100250000C131300AC017610A9485BA08ED859E7A7
:10026000F2E804E904E904E904E90000C060C30815
:10027000081304E904E904E904E904E904E904E9E8
:1002800004E900000CA030C8083824182D18A24634
:10029000671EAB4654465D46AC4201D1FFF736FFC0
:1002A0007E460F3E0FCCB6460126334200D0FB1AE5
:1002B000A246AB4633431847409700001098000011
:1002C00003B4FFF7FAFE03BC09F044F90020002252
:1002D00070470000064869460160F0B4EFF30580FE
:1002E00001B404480121C907016020BFFDE700BF38
:1002F000000000210811044070B505460C46164662
:1003000002E00FCC0FC5103E102EFAD2082E02D3F9
:1003100003CC03C5083E042E07D301CC01C5361F0C
:1003200003E021782970641C6D1C761EF9D270BD23
:1003300010B5FA4AD27BFF2A05D0F94B92001B6810
:100340009A58904710BD0124F64924030C60F649E1
:100350000840F649801C0860F5480121C1604168E9
:100360000E2003F094FCF348046010BD70B5F24D0C
:100370002878002824D0802003F069FFEC494C68DD
:1003800003F05CFF2146652003F081FC2878EB49EF
:10039000C20700D00C62820700D58C60420700D5EE
:1003A0000C61E74A030700D51462C30600D59460C8
:1003B000830600D514612823184008D0516A07E04D
:1003C000562003F07EFCE049DE484860FEE7496ABB
:1003D0006961A978002908D0DC49002802D00120F1
:1003E000400301E001200003886000202870686954
:1003F000002801D06869804770BDC84A127CFF2A76
:1004000004D0C74B92001B689A581047CA4B00286B
:100410001A7804D0C80010431870C94802E00A4393
:10042000C6481A70FE222A210A540068022141801F
:10043000C7485861C749802008607047F7B504462F
:10044000B64882B0827BFF2A09D02038006891002C
:1004500043582046049A0399984705B0F0BD0125FA
:10046000B04E2D033560B14F01203860BA480460AA
:10047000AF4840682146009007F0AAF8009A00288B
:10048000214615D0072003F0E2FB002038603560DC
:100490000498002805D001210398FFF7AEFF05B0AE
:1004A000F0BD02218802039A00F0F9F805B0F0BD12
:1004B0001D2003F0CCFB9F48056005B0F0BDF7B5EB
:1004C000034682B095480190407BFF2809D09449AB
:1004D00080000968049A0C5818460399A04705B093
:1004E000F0BD03980027964C002800D12C3C197BC6
:1004F000009108070025000F09099E68C90706D06A
:10050000009922464906890F2032917203E0FF21AB
:10051000224620329172012159809049022813D03D
:1005200004DC002819D0012804D106E0042809D0F1
:100530000A280BD00A2805DA0AE010460A22825659
:10054000002A12DA0F4683E002250EE003250CE0B4
:100550000499002903D0032801D001250BE0800075
:1005600000194038806B86190225734840780028AE
:1005700001D07B4F6CE003980028208D0BD04028E1
:1005800006D94A2003F09DFB6F496E484860FEE79C
:10059000218D74480AE0E02806D92E2003F091FB53
:1005A000694968484860FEE7218D6F4808F0D6FE2B
:1005B000012D16D00398002800D002200421032D1D
:1005C00000D0002108430499002900D008210843E5
:1005D00001210843584A022D50700ED0032D1AD025
:1005E00036E00498002801D0042100E00021032017
:1005F00001430398FFF701FF2AE02662A6600498F2
:10060000002800D02661009803990006C20F3046EA
:10061000FFF714FF1CE00198C07BFF2807D040497A
:10062000800009680A5830460399904710E0012479
:100630003C48240304603C4806403C48B61C066025
:100640003B48C16041680E2003F021FB394804603B
:10065000384605B0F0BD70B5018805460A0B082A7A
:1006600000DB07222E488318A0339B79FF2B0AD08A
:1006700000689A008458002C0FD06E2003F014FB01
:100680002846A04770BD2C4B0120DB8890401842C3
:1006900003D09000354A1458EDE7822070BDF7B5BD
:1006A0001E4882B0007BFF2808D01D4A80001268D7
:1006B0001358049A0298984705B0F0BD1C480025CD
:1006C000406801900498002801D01D4C00E01B4CAC
:1006D000002262620498184B002803D01748406A31
:1006E000586104E01648406A002800D15A615878E1
:1006F000C60705D08007C60F0498864200D15A70FD
:100700000A4A002010600120194A000310600229E3
:100710006ED000292ED001202DE00000F003002132
:10072000D003002180E200E00C1F000040300440B4
:100730000030044000E100E09402002108010021A3
:10074000340100210000008000ED00E000110440B1
:100750006D03000000E200E080300440010800006A
:100760000D0800004002002160010021BC9600003D
:1007700080E100E000202268527B13071B0F062B4C
:1007800022D27B441B79DB189F4402320406090BFA
:1007900001260DE001225040002829D1F8E701236D
:1007A00058400028F4D01006060F12D0002E28DD85
:1007B000206803290FD04568284603F0EFFB002886
:1007C0000BD0FC48029013E0FB480026F643029051
:1007D00017E0256815E00569EEE70127012E10DD19
:1007E0006868009003F0DAFB002804D0F1486880C4
:1007F0000026F64305E0032068807F1C009DB74279
:10080000EEDB0298216848800499EC48002901D069
:10081000042100E001218160002E0FDA04990029F3
:1008200001D0082100E00221816000212046203013
:10083000C1722160FC21817205B0F0BD28880027BB
:100840000005800F032802D0022802D03AE0DC48DD
:1008500000E0DC48A04203D0016800290FD0DA4F45
:100860002030C17A83221140C1722846FFF7F3FE7F
:10087000822827D0D549884226D1D3484BE0216829
:100880006268A368E668016042608360C6602169AF
:100890006269A369E669016142618361C661226A96
:1008A000616AA36A026241628362002221462031AA
:1008B000CA722260FC228A720499012251400446C5
:1008C0000491CDE7C24826E0012806D0682003F055
:1008D000F8F9C149BF484860FEE738001BD1A0685D
:1008E000E0600198606125602068407B0007000F90
:1008F000052801D9B0480EE0802003F0A8FC054689
:10090000206800220499FFF7DAFD0746284603F025
:1009100095FC380090D00221049AFFF7C0FE05B084
:10092000F0BDF7B5002584B007462C462E46802042
:10093000009503F07FFFA9494968019103F088FF02
:10094000B807800F04D001283ED0022806D13BE032
:100950003D46384603F000FB002801D081204EE0E0
:1009600028880105880F012808D0890F06D09449EE
:10097000032807D0022816D0822040E02846FFF73F
:100980006AFE37E0069800280BD00868002808D1D6
:100990002846FFF760FE01282CD10121884C0091E8
:1009A0002DE086202BE006980028FAD085480068C4
:1009B0000028F6D108680028F3D12846FFF74BFE3F
:1009C000012817D17F4C1AE0380C810502D58449E3
:1009D0000F4001E039040F0E0105890F012901D0F4
:1009E00083200CE0694608814F8102A8FFF733FE9F
:1009F0008228F5D07549884201D1734E01200599AE
:100A00000860002C2BD07749802008606A7B002E7C
:100A10001DD12560002083001B1901995960401CDD
:100A20000728F8DB1007000F052801D9624E0EE0F9
:100A3000802003F0FFFE0446012228460099FFF7BC
:100A40003EFD0646204603F003FF002E04D002219F
:100A50003046009AFFF723FE002007B0F0BD0120CA
:100A600007B0F0BDF8B56048C07AFF2805D05F49EF
:100A70008000096808588047F8BD50480068002881
:100A8000FAD05B49C97A6A4611705A49C97A5170DD
:100A900001225949FFF745FF002842D000240126D2
:100AA000504F3603002C01D0454D00E0454D72B645
:100AB00020350A202856E97A002806DA421C04D09C
:100AC000821C23D0C01C21D027E088070CD53E60B3
:100AD00062B6002C01D0012200E00022022147482A
:100AE000FFF7DDFD00200FE0C80716D03E6062B6BC
:100AF000002C01D0012200E0002200214048FFF735
:100B0000CEFDE87A40084000E87206E06846005DE5
:100B1000814302D03B498020086062B6641C022CED
:100B2000C0DB394980200860F8BD70B52E480079D7
:100B3000FF2805D02D49800009680858804770BDFE
:100B4000324CA169002911D01C4800682D4D0028A5
:100B500001D00120286001C90022FFF7E2FE002039
:100B6000A061802028602849086070BDFFF77AFFE7
:100B700070BDF8B526480027076001221948120306
:100B80000260224E7078C10756D00D4C810700D408
:100B90002C3CFE212A231955236802215980B17863
:100BA000002938D00549830734D5012252038A60D1
:100BB00031E00000040800000208000000110440B9
:100BC000340100210801002106080000FFFF000099
:100BD000050800000000008000ED00E00030044047
:100BE000FCFF000080E100E0F0030021D0030021C1
:100BF00028010021540100210411044005040000D3
:100C00000404000000E200E000E100E094020021A2
:100C1000403004408A6040070BD5FB4805685720E8
:100C2000294603F034F82562A5607078000700D5E6
:100C30002561606A706177707069002801D0706901
:100C40008047F8BDF14B00218200D2189160014627
:100C50000E3101228A40EE490A60EE49CA7AEE4B13
:100C60001B5C1A43CA72ED49CA7AED4B1B5C1A43EE
:100C7000CA72EC4AFC211154704710B5EA4CEFF3EC
:100C800005801E38FFF7DEFF6069002801D060692B
:100C9000804710BD10B5E44C2079002805D0002015
:100CA00020710120400203F0C9FA6069002801D0D8
:100CB0006069804710BDDD48816A0222114381626C
:100CC00000BF00BF00BF00BF81690907FCD500BF9E
:100CD00000BF00BF00BF81690907FCD5704700282D
:100CE0001BD0D2498A6A02231A438A6200BF00BF1E
:100CF00000BF00BF8A691207FCD500BF00BF00BF5C
:100D000000BF8A691207FCD510B50122C849FFF758
:100D100008FEC8498020086010BD704770B5C648FD
:100D20004079FF2805D0C5498000096808588047E8
:100D300070BDC0480468C2480068C24D04406004E9
:100D400005D50020FFF77EFF0120800328602004E6
:100D500005D50120FFF776FF0120C0032860E003DE
:100D6000E6D50220FFF76EFF01200004286070BD69
:100D7000F8B5B1488079FF2805D0B04980000968EE
:100D800008588047F8BDAB4D2C68AD480068A44EAC
:100D90000440AC4F600408D50020FFF753FF3178C2
:100DA00001208003002917D02860200408D50120E5
:100DB000FFF748FF71780120C00300290ED028609A
:100DC000E003DFD50220FFF73DFFB17801200004EA
:100DD000002905D02860F8BD3860E6E73860EFE705
:100DE0003860F8BD9448C079FF2804D0934980004A
:100DF0000968085800478D4B18689349884202D00B
:100E0000924A90421CD18E4A1268D20718D088426A
:100E100001D1022000E001208D490968002903D09A
:100E20007C49CA7A0243CA728A490968002903D0F8
:100E30007A49CA7A0243CA7282490120086058601E
:100E40007047FFB50D4611467B4A83B0147A0D9F5B
:100E50001E46FF2C0CD00C9A0092784A019712681B
:100E6000A300D4580A4633462946A04707B0F0BD30
:100E70002A07120F032806D31B2002F022FF77490E
:100E800075484860FEE7002B01D0724B00E0704BC4
:100E90002C11E607634C02D06E06B60F00E0FC266C
:100EA00026545D4E0C9C3454F41C2754002A0DD05B
:100EB000012A3DD0022A0DD00A2A0AD02ADA92004D
:100EC000D218403A926B5118022203E0FFF7BAFEA3
:100ED0002EE003224D4C002683001C19A660074615
:100EE0000E370126BE40574F3E605D4F032A15D096
:100EF0000120A060444818188160786806F068FBFB
:100F0000002813D0E811C00715D00020A0604C487D
:100F100006600BE00020C04307B0F0BD514A11400D
:100F2000891CA160801C01218140F9604148066054
:100F3000002007B0F0BD0020A06007B0F0BD70B584
:100F400005463D48407AFF2806D03C4980000968A4
:100F500009582846884770BD334E00207178CA076B
:100F600021D08907CC0F3B4900D12C392A228A563F
:100F7000AA4218D1802003F05DFC244A00211160B0
:100F800003F066FC01202249000308607078000726
:100F900004D507212046FFF730FA03E0032120465D
:100FA000FFF72BFA01201F4E00243157A94203D12D
:100FB0002046FFF747FE0120641C032CF5DB70BDC3
:100FC00010B51D49897AFF2905D01C4A890012688D
:100FD0005158884710BD032806D3272002F071FE20
:100FE0001E491D484860FEE7084B00218200D218C8
:100FF000916001460E3101228A4005490A60094A82
:10100000FC21115410BD00008030044040300440E9
:1010100080E100E0280100219C0200215401002110
:101020009F020021A202002194020021001104402D
:101030000411044000E100E0F0030021D00300218E
:1010400000E200E080E200E001000104010002048F
:1010500008010021340100210000008000ED00E0C3
:10106000003004400C1F000070B52F4800240460BD
:1010700044608460C460046144618461C46104624A
:1010800044628462C462046344638463C46304642A
:1010900044648464C46404654465244D6C61EC61FB
:1010A000AC612C71AC70FF22B021214808F02FF9FF
:1010B0001F4920480860E878C122C106C90E1143C3
:1010C000C206E980120F01D1402803D10122520249
:1010D0001143E980810604D5E9888122D2001143B9
:1010E000E980010703D5E98820221143E980400601
:1010F00004D5E888FF2101310843E88003230E4826
:10110000DB4383720D4883720D490E4E0E4A002058
:101110000C5434541354401C0328F9DB2C706C70AD
:1011200070BD0249887070470801002194020021B7
:10113000D00300214C40002128010021540100214E
:101140009C0200219F020021A2020021F8B50700A5
:1011500001D0FF4D00E0FF4D2868C689700AC00726
:101160000BD0FD480068002803D0296849690C1895
:1011700005E03A460221F94807E02868446920461C
:1011800002F0EAFE002842D102E0FFF788FAF8BD3B
:10119000A00731D06078217800020843A1780904C3
:1011A0000143E07804060C43B008C00700D024BA1D
:1011B000F008C00709D0FF20013003F048F8E848E4
:1011C00004608468801503F039F82868F1058069A7
:1011D000E44B2040E44CCA0E1DD0C90E2022511A07
:1011E000884008412968B207C969920F06D0012AD0
:1011F00007D0022A0BD107E02468D5E7884218D02F
:101200001BE0884215DB18E0884212DC15E03A4604
:101210000221D648B9E72968B207C969920F06D0FA
:10122000012A0ED0022AF2D1884206D901E0884272
:1012300003D13A4603211846A7E73A460021204643
:10124000A3E78842F9D2F4E701207FE710B5020056
:101250000B4601D0BE4800E0BE4801680124C989A0
:10126000A40200290AD00068C189491E0904090C9A
:10127000C1810BD00321002B0CD10AE0002B02D03E
:101280000321204607E00221B84804E00021B848C5
:1012900001E001212046FFF702FA10BD01210846B6
:1012A000D4E710B5012001F052FFAA48416A002995
:1012B00001D0406A804710BD00210120C6E701220D
:1012C00010B511469002FFF7EAF910BD10B5A94814
:1012D000817A007A02F0C7FFA7480021C162092184
:1012E0000162C16AC907FCD0C1200121000103F0DD
:1012F000AEFD04F012FD06F0E3FD0121002288029C
:10130000FFF7CDF910BD002020E7012100209DE767
:1013100010B5002001F01BFF10BDF8B58D4D2968F8
:101320000E20085629680F240C570B2807DC0B2CBD
:1013300005DC0126F607002805DA002C0BDA00226E
:1013400002218A4819E02968098A04F0B5F907469C
:10135000002C01DA06E037462868418A204604F06E
:10136000C6F900E030460146384604F0D9F9782045
:1013700002F064FF012100228802FFF790F9F8BD16
:1013800010B506F09DFD012100228802FFF787F9C4
:1013900010BD70B577490620085E784D401C04D119
:1013A000002202217648FFF77AF96A48006804694A
:1013B000284607F0E5FD002C0BD080222946204668
:1013C00003F069FD002804D0002202216748FFF7DE
:1013D00066F9284606F0B1FD002804D0002202215B
:1013E0006848FFF75CF9012100228802FFF757F9EE
:1013F00070BD0021084629E738B563485F4CC07AC4
:10140000800705D506F0DDFB002202215F480EE0D3
:10141000207800280ED0684606F096FB002808D0F9
:101420004C49009809680022086101218802FFF7F1
:1014300036F938BD06F0ECFB0120207038BD10B540
:1014400051484E4CC07A800705D506F0BAFB002201
:1014500002214E480CE0207800280CD03D4800685E
:10146000006906F066FC002804D0012100228802F1
:10147000FFF715F910BD06F02BFC0120207010BD00
:1014800038B541483D4CC07A800705D506F099FB38
:10149000002202213D480EE0207800280ED0684648
:1014A00006F0D1FB002808D02A49009809680022DC
:1014B000086101218802FFF7F2F838BD06F0A8FBA9
:1014C0000120207038BDF0B5FF2085B02B4C0130D5
:1014D00002F0BDFE2C4DE87A800702D52B4D022686
:1014E00013E0E87A400702D5294D00260DE0207868
:1014F00000287ED11F490620085E401C56D0254892
:101500000078032854D0244D022606F02BFC00203E
:10151000FFF756FD04F001FC607A002804D0214654
:101520000C31002007F09EFC0A480068807B4008D0
:10153000C00701D004F0B2FC207A002802D017487E
:1015400061680160FF20013002F078FEA8B227E058
:101550003401002108010021B00200210C08000024
:1015600040200440000400000604000003080000BE
:10157000010400008003002100600440600100219C
:1015800007080000090800002801002105040000E8
:1015900004040000E40200210808000000200440C8
:1015A00000223146FFF77BF805B0F0BDFC4DABE7FC
:1015B000012006F0A6FEFB4E316AFB48008C08189D
:1015C0000121029006F017F830680126877BF807A2
:1015D000002805D021460C31012007F043FC66723B
:1015E000002004F00EF92F20F04900020860ED48B9
:1015F00000E05CE00068002240690390114603A807
:1016000004F071FCE7480068E74A018A6180127CB7
:101610003807800F9208D20709D0012804D0E44A85
:1016200011609168090C618089B2C9BA6180002893
:1016300006D0012807D002280DD0032819D10AE0CE
:101640000020607015E0012004F0D5FE002108465E
:1016500004F01EFF0CE0D74F39686160D64926724E
:10166000022800D0D549396004F0F8FED448386229
:101670006670E87AFB210840E87200230422C9481A
:1016800001930092016800688A69C17C1846FFF7DF
:10169000D8FB002801D0CB4D36E77520029902F027
:1016A000F6FAC9480F21816304F0F6F826702F205E
:1016B000BE4E00023060C54DC34F7068C1070BD0ED
:1016C00060780028608805D0EA6910219047696A2F
:1016D000102088473863F0E7410701D5BC4D13E778
:1016E000C006EAD5BB48407B00023060BA490820FA
:1016F0000860BA490860400102F0A0FD05B0F0BDE5
:10170000F0B583B0B74800250090B54CC07A0226EA
:101710002F46800701D5B44D01270098C07A4007B5
:1017200002D5B24D002601272078384362D1A7495F
:101730000620085E401C05D0AD480078032804D080
:10174000AC4D51E0964D022656E0002006F0D9FD42
:1017500004F013F99348006800690290FF200130FB
:1017600002F075FD0022114602A804F0BCFBFF2028
:10177000013002F063FD8B480068817B8808C00758
:1017800014D09D48426962808269A280026AE28028
:10179000426A228101226270984A4261A3881B0A30
:1017A0001B027F3383610262426201E000206070AD
:1017B000C80704D192480168022291430160009851
:1017C000C07AFB2108400099C872002304227548A2
:1017D00001930092016800684A69C17B1846FFF7CF
:1017E00030FB002802D0774D022605E004F042F9D4
:1017F00001202070002F23D00020FFF7E1FB04F030
:101800008CFA607800280ED0082002F020FD7A487B
:1018100061884161A1888161E18801622189416219
:10182000082002F00BFD5F480068807B4008C0077D
:1018300001D004F033FBA8B200223146FEF72FFF9F
:1018400003B0F0BDF0B5FF2085B0654C013002F06B
:10185000FEFC64485C4D039003980026C07A800724
:1018600002D5614C0225F1E1584F7878002803D069
:101870002F204E49000208602078072874D278444F
:101880000079001887440376F6F5F4F3F200062099
:10189000385E401C06D056480078032804D0554CCA
:1018A0000225D3E13E4CFBE7012006F02AFD3D4E28
:1018B000306A3D4F398C40180121029005F09BFEA3
:1018C000002003F09EFF2F20384900020860B878FE
:1018D00001903068C0896080C007C00F60703068B8
:1018E0000022006900901146684604F0FCFA617815
:1018F0000220002900D104200121084304F07BFDCF
:101900006088810AC9070AD0400AC00702D000993E
:10191000019801E00021084604F0BAFD02E02549E3
:10192000002008626088010AC90700D0797CA161A3
:101930004006800EE16160603068018BA160642028
:10194000029A02F084F96068A168C01DC010884244
:1019500008DC306800294069E06006DD02F01EFB0B
:10196000002802D0174C9BE787E10F20A86303F003
:1019700093FFB1E06068002856DD0C494968C9074B
:1019800073D0102851DB6078E2682169002839D0D3
:10199000481C2061515C0902431C2361105C38E043
:1019A00007080000080100212800002180500440A1
:1019B0004020044000200440000002800700400056
:1019C0000000AAAA03080000405004408003002140
:1019D0000A0800004800002180E200E000E100E089
:1019E000600100212801002105040000040400001A
:1019F000E402002108080000005104407F7F00003D
:101A000000500440481C2061515C431C2361105C61
:101A100000020843FA6910219047796A102088472C
:101A200061681039616028633BE0401EA8636078FC
:101A3000002820D06168E36808290EDD22690E467F
:101A4000501C20619A5C083EB240461C2661185C1E
:101A50001023591AC84010431AE02069421C226121
:101A6000185C0822511AC84012E01DE0E7E09FE030
:101A700079E054E039E02069E268411C2161636843
:101A8000105C082B04DD4B1C2361515C09020843E8
:101A9000FA6961689047796A6068884700216160E7
:101AA00028636068002806D0FD4840681421084279
:101AB00000D15FE7A4E06088800AC00703D100215D
:101AC000084604F0E5FCA1682069491E88420ADA4C
:101AD000E1680818C00703D02078401C2070BBE6DE
:101AE00003202070B8E60420FBE70720A863EC4839
:101AF00014224168C9070ED0EA480068416920698C
:101B0000421C2261085CFA6908219047796A082022
:101B100088472863E0E741681142EAD070E00F206F
:101B2000A863DF4EA0682169401E814211DA706807
:101B3000C0070ED0E0686278405A002A00D0C0BAD0
:101B4000891C2161FA6910219047796A1020884721
:101B50002863A0682169401E8142BDDA70681421A3
:101B60000842DFD04CE00720A863CD4EA168206971
:101B700088420FDA7168C9070CD0CA490968421C4B
:101B800049692261085CFA6908219047796A08204E
:101B900088472863A1682069884204D13A6AE169CC
:101BA0000020904798E7706814210842DED027E0B3
:101BB000BB4FE069102801DB0F2002E0002819DD8F
:101BC000401EA863E069002814DD7968C90713D0B6
:101BD000A169884201D0606903E0B349496A884736
:101BE00060612863E069102818DD6169090C10380C
:101BF0006161E061002813D0786814210842D8D0D0
:101C0000FF20013002F01AFBA848407B0102A448E3
:101C10000160406840073AD5A54C41E60020E061EC
:101C20002078A149401C20700878FD2210400870DF
:101C3000A049D01C0860002E00D00DE621E09A4893
:101C4000007880071DD50124A402012506F08AF83A
:101C500004F063F893480068C089C009C00701D048
:101C600004F01CF9FF20013002F0E8FAA0B20022D3
:101C70002946FEF714FD05B0F0BD90498E48486036
:101C8000FEE7FF20013002F0D9FA05B0F0BD8C4923
:101C9000082008608749086005B0F0BDF0B5FF2056
:101CA00085B0884C013002F0D2FA204634300390DF
:101CB0007E4826460190403683482746603700908C
:101CC000002002900098C07A800702D57F4C022540
:101CD000D7E00098C07A400708D53888C00405D5F9
:101CE0002078022802D37A4C0025CAE02078062802
:101CF00075D27844007900188744048F02FCFBFAFF
:101D0000E06953E168480621415E491C06D07148EC
:101D10000078032804D0704C0225B2E06F4CFBE73A
:101D2000002006F0EEFA03F028FE5E4D2868C08918
:101D30003880C107C90F31732968400B0969A16553
:101D4000C00709D02868214640695C31E06500225F
:101D5000081F04F0C8F805E000222046114658305C
:101D600004F0C1F8317B0220002900D1042004F0E6
:101D700042FB4B49002008603888010AC90701D09E
:101D80005749497C6164296840064B8B810E63602A
:101D9000A1602868008BC205D60E0207120FE6600C
:101DA0000004226140166061C81DC010B218A06115
:101DB0008A4274DC984272DC0020E0612062A062FA
:101DC000E0622868491EC0692063606CA064C01D81
:101DD000C01020650F2903D24248C16303E0CEE260
:101DE00040490F20C8630098C07AFB210840009941
:101DF000C87200230422019300922868026A2868AE
:101E0000203001791846FFF71CF805F065FD03F056
:101E100031FE2078401C2070FEE1039805F01AFE88
:101E2000002805D00098C07AC00724D0284C27E0AD
:101E30003888410BC90703D02A49C96A4907C90F25
:101E40007173810AC90710D0400AC0070AD0707B9D
:101E5000002801D0E16D00E0A16D2148807804F0F8
:101E600017FB05E000210846F9E71F49002008623A
:101E70002078401CDDE00098C07A40077ED51B4CDE
:101E8000002505F06FFF0020FFF79AF803F045FFEB
:101E900004480068C089C009C0072ED02BE078E252
:101EA00080500440080100218003002148000021E7
:101EB0000A08000000E100E00000008000ED00E002
:101EC00080E200E0600100212801002105040000FB
:101ED00004040000E40200210808000007080000D4
:101EE000280000214050044000200440030400006A
:101EF000E8E176E137E103F0D1FFA0B20022294604
:101F0000FEF7CDFBFF20013002F098F905B0F0BDDF
:101F10002D1A102D21DBF848406BF84D1021EA698D
:101F20009047307B696A00280BD010208847014613
:101F3000206A0322121A52001219401C20621185D5
:101F400008E0102088470146206A42001219401C10
:101F500020621185E069103027E0E748691EC163FF
:101F6000406BE649CA6929469047307B0028E34820
:101F7000416A28460FD08847102100E04CE14A1BF7
:101F800001469140206A0322121A52001219401C85
:101F90002062118507E088470146206A4200121935
:101FA000401C20621185E0694019E061A568A842E3
:101FB00003DAD34949688907AAD4A8427ED12069A7
:101FC0000290002837DD307B002810D04020E168E7
:101FD000401B4218E16AA06A07F0ECF8029A01215E
:101FE0009140491E084061694018A0630CE0E26816
:101FF000E16AA06A07F0DEF8029A01219140491EC9
:10200000084061694018A063002801DA0020A0633D
:102010000146A0690818E063626890420FDD05F090
:102020005BFC03F081FD0020E0612062A062E062C1
:102030000120207044E6A1696068401AD5E7A06CD1
:10204000C90028184118AC4801623888000BC00745
:1020500007D1FEF7B5FF0098C07AFB210840009930
:10206000C872206B002823D0307B002811D0A169D2
:10207000002000291CDD0723191A091920310A7ACA
:10208000216B401C4D1C25630A70A1698142F3DC61
:102090000EE0A169002000290ADD211820310A7A0A
:1020A000216B401C4B1C23630A70A1698142F4DC44
:1020B0002078401C20703888800A00E00CE0C007BF
:1020C00003D10021084604F0E3F9A06B0128B1DD3B
:1020D00089480F21C163F3E50198A16B007BC9001A
:1020E000814250DA08464EE000210160A06B0128D1
:1020F00002D0206BC00719D07F480721C163406B15
:102100007E4D0821EA699047206B002807D0696A54
:10211000082088470146206B421C22630170A06B97
:102120007549401EA0630F20C8631CE0724D686BA8
:102130007249CA6910219047206B00280CD06F4863
:10214000416A10208847317B002900D0C0BA216B3A
:102150000880206B801C2063A06B801EA063012878
:1021600001D10720E863A06B002804DD64484168C2
:102170008907B9D401E000280DD00198A16B007B3C
:10218000C9008142AEDB5E4908605E4910200860EC
:102190005D4908603DE000222264A06C401E0F28CB
:1021A00002D25549C86302E053490F20C86354481E
:1021B00002602078401C207082E51560A06C102819
:1021C00008DB4B6B10382364A064401E0F280BD231
:1021D000C86309E0206C496BA564090408432064C6
:1021E00023E04549464A0025A06C002803DD5068DD
:1021F0008007E2D401E0002817D00198A16C007B91
:10220000814200DA084610603E49102008603E49CD
:10221000086002980028CFD139484068800679D5F7
:102220006B2001F04EFD394C76E504F0A7F93075CE
:10223000616C002939DD314D206C2A6A9047696A4A
:10224000606C88472064206B00282AD03888C00A38
:10225000C00726D0307B002813D0216D0020002934
:102260001FDD616C226C0839CA40216B401C4B1C7D
:1022700023630A70216C09022164216D8142F0DC24
:102280000FE0216D002000290BDD216B226C4B1C1F
:1022900023630A70216C401C090A2164216D81426C
:1022A000F3DC04F011F9707500E0757513480178DE
:1022B0004908490001701449042008602078401C36
:1022C0002070FDE40D480078C007A5D00020FEF77F
:1022D00077FE03F022FD3888C009C00701D003F063
:1022E000DDFD3888C00AC007E06B14D0216D4018AE
:1022F00007490968C88411E0405004408003002168
:102300008050044080E200E000E100E00B080000A3
:102310000801002137E0F9490968C884F748327D8F
:10232000016820314A71616B02689162717D0029F8
:10233000717B0AD00068002903D0418E491C418678
:102340000DE0C18D491CC18509E00068002903D05A
:10235000018E491C018602E0818D491C818500980F
:10236000C07AC00702D0E64C0025C6E5707D002883
:1023700001D0E44C01E00124A4020125BDE5E349BC
:10238000E1484860FEE7FF20013001F057FF05B04B
:10239000F0BDDF4CC0E410B503F080FD0121002248
:1023A0008802FEF77CF910BDF0B5DB4CD94DE07A20
:1023B00083B080070AD50020FEF702FE03F0ADFCD3
:1023C00003F06CFD00220221D4486AE0287800283E
:1023D00014D0D3480178032975D000214156D14D3E
:1023E000002974DA122001F06CFC0020FEF7E8FDF1
:1023F00003F054FD00220221284652E006F0B4FD0D
:1024000000285CD0C8490620085E401C51D0BB485B
:1024100001688E7C01680268C9890904128A114327
:102420000291006800270088C049884201D1012735
:1024300010E0E07AFB210840E07200230422BC484F
:10244000019300924068BB49898C421802211846CA
:10245000FEF7F7FCA9480168CC7CE1070AD00168C7
:10246000CB8A0093016800684B7D027D21092046DC
:1024700006F003F97006830EE207F107D20FC90FC9
:10248000029802F08EFA002806D00020FEF798FD90
:10249000002202219E4804E0002F06D001210022E4
:1024A0008802FEF7FCF803B0F0BD0120287003B0ED
:1024B000F0BD00220221A048F3E704E007E000227B
:1024C00002219E48EDE70020FEF77AFDE6E7E07A7C
:1024D0004007ECD5772001F0F4FB03F0DFFC00228D
:1024E00002212846DDE7F0B58B488A4C944DC07A2E
:1024F00083B0800708D503F010FC00220221874832
:10250000FEF7CDF803B0F0BD2078874E00287ED1CD
:102510007A480168897B618001680A8AA280006824
:10252000C77B0220205EFF2810D0864904230B6061
:102530009B010B603178FD2319408B074908DB0FA5
:10254000490019433170012810D013E00620305E95
:10255000401C07D001212170307808430221084334
:1025600030701BE000220221734825E0510701D0A2
:10257000042106E0052803D17906490E052919D062
:1025800000215E4A1268526901F099FE002873DB4F
:102590000021C943F1800121217060705748006813
:1025A000A188428A384604F0D3FD002808DA03F0F7
:1025B000B4FB9EE00821E4E7FEF771F803B0F0BD3C
:1025C00013200002B0816088052807D130790228E5
:1025D00004D0052802D057495B48C8607D22307975
:1025E000D200062805D9FF225F320A2801D8FF222F
:1025F000E132A0883B46294604F0EAF9E080000C6D
:102600002081A088800AC00704D1284600E01AE093
:1026100006F0B6FC30784D4982070AD44C4AD26A9B
:10262000D20703D002221043307002E0FF200130B5
:1026300008603078C20709D1464AD26AD2071CD056
:102640000121084330703078C007B7D03078800758
:10265000B4D520780128B1D128480068406902909B
:1026600003F05BFB6078284FC0070AD03A49F8179F
:1026700003F022F8009005E03BE00420086003B07E
:10268000F0BD00976078800705D500203249C0432F
:1026900003F02DF80746BF20C00001F0D8FD0190DF
:1026A0002E49E088C8613946009803F058F8A2889E
:1026B0002946029802F095FF07462948806A002FB4
:1026C00080B200900FDB6088FF2809D025480821E0
:1026D0000A226156825624488918826A89188162C2
:1026E000384604F0ECFB019880B201F0A7FD002F02
:1026F0003CDA0022022106485EE7000008010021C2
:1027000004040000020400000000008000ED00E06E
:1027100003080000600100212801002105040000D9
:10272000E4020021090800008003002115080000D0
:1027300000300440280000210708000008080000BD
:102740006C01002180E200E02D02000000E100E0C9
:102750000060044040500440FF030000C0500440AB
:1027600080600440A800002140600440A088010966
:10277000C9070CD18006C20F284680300746009951
:1027800004F0D8FA00222021384604F02DF8A08861
:10279000C009C00705D1284601221021C03004F02D
:1027A00023F8A088800AC00708D1284605F0C5FB99
:1027B000002803D000220221FB48FDE60220205E13
:1027C000FF2800D0F080002201218802F4E610B535
:1027D000012100228802FDF762FF10BD70B5054699
:1027E000F2484587C06B00280ADA284605F0CEFA81
:1027F0000446802002F01EF8ED49CC6102F028F872
:10280000284602F0A1FA70BDEA49497CFF2904D0AC
:10281000E94A890012685158084701218140080699
:10282000400F00D001207047E249897CFF2904D085
:10283000E14A89001268515808477047F0B5068888
:1028400004463005820FDD490127002583B0002AA8
:1028500007D0800F012804D0022877D0032876D033
:1028600078E0D74BD14AF01A9E4271D02EDC0C2E64
:102870006FD00ADC6ED27E443679B619B7446A8BC3
:10288000A7DAE7FEFDFCFBFAF9F8122E74D00ADC99
:1028900030460D3805285DD2784400790018874409
:1028A000F2F1F0EF7900152E67D004DC132E71D011
:1028B000142E4FD1C0E2C34880243318C24DC34800
:1028C000C34A002B2DD0012B44D144E00C286FD0FB
:1028D0000ADC3FD278440079001887443B7094B6F4
:1028E000F6F5F4F3E0F2F1F0BA4BC11A98427ED05B
:1028F0000EDCB94A811A90427AD004DC0D2878D0D7
:102900000E2827D17FE3012974D0022922D106E2C3
:10291000012970D002296FD003296ED0042919D162
:10292000A9E272B60968002903D0D17A02231943BB
:10293000D172AA490968002903D0C17A0222114341
:10294000C17262B62C60012003B0F0BD62E3D6E331
:1029500014E06CE1D2E372B60968002902D0D17AA2
:102960003943D1729D490968002902D0C17A39439F
:10297000C17262B62C6068E039E361E20868002841
:1029800003D196480068002879D0002003F003FEA8
:10299000000482E097E2924801F04CFF05461F22B6
:1029A0000021606802F077FA002802D0872401E055
:1029B0000EE30124284601F04BFF2046C4E7A0782F
:1029C00003287BD8FEF7BBFA002858D03DE08548A5
:1029D00060808548A08009200002E080E0202081FE
:1029E0007448807CFF2830D07349096806E0C3E151
:1029F0000EE0F3E26CE185E0C1E04AE180000958B5
:102A00002046884721E004F0A5FD002837D11CE0CE
:102A10006088800752D1724801F00CFF014662883D
:102A20007248101805680846656001F011FF280219
:102A3000401C89E76088810740D16C494518684887
:102A400001F0F8FE6168296012E201207CE76088ED
:102A5000810733D165494618614801F0EBFE3568BE
:102A600003466168A068CF43074302468A430BE0F0
:102A7000C0E038E126E121E11AE113E10DE192E045
:102A8000D6E1C5E1B3E1F0E03D40084015434540E3
:102A90003560184601F0DCFE32E0401C54E70026A9
:102AA000A578202001F0C6FE0090E8070ED0A80807
:102AB00003F05EFE054610281BD21BE00FE1F6E195
:102AC000CAE12EE088E17CE14BE109E1A808470872
:102AD0007F00384603F04CFE0546102809D27F1CC3
:102AE000F8B203F045FE102803D200012843C5B216
:102AF00000E00126009801F0ABFE002E53D1E570F6
:102B00002802CAE7A578A8080602E0780643202034
:102B100001F090FE0446E907C90F304602F097F92C
:102B2000A5E10027A678202001F084FE0190F0079F
:102B300006D0B00803F03BFE0646102814D214E07D
:102B4000B00840084000009003F031FE064610280F
:102B50000AD20098401CC0B203F029FE102803D20C
:102B600000013043C6B200E00127214845610198C9
:102B700001F06EFE002F16D1E67030028DE7A678C8
:102B8000B0080702E0780743202001F053FE044616
:102B9000F107C90F384602F06DF915484561204626
:102BA00001F056FE51E7DBE0090800002800002193
:102BB00000300440F0030021D0030021080100216F
:102BC00003040000FFFBFFFF00E200E054010021CE
:102BD0002801002101020000FE0100003401002153
:102BE000FFFF000005220000E00400210000044077
:102BF0004060044061884805400DE0286FD8C90452
:102C0000890F04D0022909D0032968D10DE081077A
:102C100065D1800880001058606016E7C1075ED15A
:102C200040084000105A60600FE7105CF4E76188CC
:102C30004805400DE02852D8C904890F04D0022964
:102C400009D003294BD10DE0810748D180088000CD
:102C500061681150F9E6C10741D140084000616840
:102C60001152F2E661681154EFE6F8480078032843
:102C700076D10120400201F0DDFD0546E01C06F0A2
:102C80003EF906F02DF90102090E6171E080284637
:102C9000EEE0608801F010FED7E6A168606800F001
:102CA0006DFB51E621460831606800F0A5FB4BE65C
:102CB00021460831606800F0D3FB45E6606800F00B
:102CC000F1FB41E621460831606800F03EFC3BE63E
:102CD00060880006810FE07801F00AF8B5E67AE036
:102CE00001F028F8B1E6A6783046FFF78DFD002800
:102CF00071D0D74AB000616884182560276072B629
:102D0000D44A80180160D448406804F061FC00286F
:102D100003D0256062B6852016E662B695E6648823
:102D20002005060F3046FFF76FFD00287ED06004B7
:102D3000800F02287AD8C649B20051180D60E2040B
:102D4000D20F921C800002432006C00E00020243F4
:102D50000A60200BC00784D1BF48B740C76074E643
:102D6000A3E0A4782046FFF74FFD00285ED0B848C6
:102D7000A1000818056068E664882005050FE006D4
:102D8000460F2846FFF740FD00284FD02006430F8E
:102D9000052B4BD8002E49D072B6AF484469B1001C
:102DA0000F228A401443446184698B4094431C433E
:102DB00084618D40D24341692A430A40426162B630
:102DC00043E6A4782046FFF71FFD00282ED0A24836
:102DD000A740C76039E629E0A4782046FFF714FD34
:102DE000002823D0A7409C48F94301612DE6A16843
:102DF00060680A4663880243920717D1002815D0FD
:102E0000002B8BDD10C9521C10C09A42FADB1CE665
:102E100060686288A368810708D1002806D0002A6C
:102E20009DDD08C0491C9142FBDB0EE687208BE547
:102E30008A486188816108E688486168816104E6A2
:102E40007520C00001F0F6FC0546606802F062FDE6
:102E5000002800D1ADE5A9E581480078002824D0FC
:102E60000120400201F0E6FC044604F0EFFF20469A
:102E700001F0EEFCE9E579480621415E491C14D0D9
:102E80000225655F5587D06B00280ADA284604F0D2
:102E90007DFF0446802001F0CDFC6F49CC6101F03C
:102EA000D7FC284601F050FFCFE585204CE5A078FF
:102EB000002802D0FDF7FFFEC7E56A48826A0221BA
:102EC0008A438262C1E50021A41C112E13D0A308FD
:102ED00020469B0080071D68C00EC54040425C68CC
:102EE0002030844025431020C54101200007854241
:102EF00011D387246AE00C20201883089B008007E8
:102F00001D68C00EC54040425C68203084402543A7
:102F10001020C541E9E754483222825E1201AC1A02
:102F20003422825E10014D4A2F1A50614F48007FB3
:102F3000C0070FD0204601F0F7FCC1B200124A4A88
:102F40002C1A34233225D35E555FAB4202D1434A5B
:102F500027465061112E0BD040480079022807D92E
:102F60000246414362435208490A541A78434708CB
:102F70003D49C86B400FC00711D03A20085EA2B28D
:102F8000210C42434143120C891889090C19390C50
:102F9000BAB241434243100C08188009C7194120B6
:102FA000C00001F047FC05463946204605F0B9FA55
:102FB000002801D0852406E028484078022801D165
:102FC00001F00FFE0124284601F042FC2046BBE43C
:102FD00000220121104603F04FFC36E50122A078C3
:102FE000114603F049FC002800DA1FE72DE52048D0
:102FF00061680160A1684160E16881602169C16028
:10300000FE21017421E5A078002800D00120FEF700
:1030100088F81AE51748301816286FD278440079D6
:10302000001887440A0D2D3033373C4044474D503B
:103030005356595F5C6265687C4A0D850E482CE0EA
:103040000A2008850D484862FFE40000E4020021E0
:1030500040300440803004400030044080030021B0
:10306000E302002100110440280000218800002113
:1030700080020021FFF7FFFFCF270000E7240000B8
:103080000F85514809E00D85504806E06820088505
:103090004F4802E0202008854E484862D5E40A20C7
:1030A00008854D48F9E7242008854C48F5E70F8549
:1030B0004B48F2E70F854B48EFE70F854A48ECE7AE
:1030C0000D854A48E9E70D854948E6E70D854948F9
:1030D000E3E70D854848E0E70D854848DDE70D85C5
:1030E0004748DAE70F854748D7E70D854648D4E7D4
:1030F0000D854648D1E70D854548CEE70FE0C12153
:103100000901701A8E4215D005DC4248301808D0EB
:103110000A2804D109E0022810D0032812D0822006
:1031200012E43D4805853D490FE03B4805853C4993
:1031300041628AE4384805853A4906E03648058503
:10314000394902E034480585384941627DE410B5CB
:10315000002802D03049364B01E03649364B1A7808
:10316000002A0CD009684969C9B2822925D014DC2B
:10317000002911D001291CD0812914D11DE02F482C
:103180000268002A08D10C68626109681031016088
:1031900001202B491870086010BD83290DD08629A5
:1031A0000BD0872909D0024600212648FDF777FA7F
:1031B00010BD02460121880202E002460221224897
:1031C000FDF76DFA10BD0000A92300009723000051
:1031D0009D1C00004518000001170000C7140000E6
:1031E000811400003F140000F9130000F3130000E5
:1031F00093130000811300001B13000025960000AC
:10320000D1950000111300000B13000007130000FC
:10321000CD120000FFF3FFFF34010021BF120000B8
:10322000B9120000A31200009D1200004912000014
:10323000400200210801002160010021AC020021B0
:1032400000E200E0060400000308000010B5374962
:10325000374A002083009B181960401C0528F9DBC1
:103260000321002000F044F80021012000F040F884
:1032700000210A2000F03CF800210B2000F038F873
:103280002C4A2D490020C300401CCA500C28FADBF0
:103290002A4848602A48C8602A4848612A48C861C4
:1032A0002A4848622A48C8622A4848632A48C863AC
:1032B0002A4848642A48C8642A4848652A48C86594
:1032C00010BD10B52948C07CFF2805D028498000D2
:1032D00009680858804710BD00F0FEFC10BD244A64
:1032E0002448D179FF2902D010688900405800474E
:1032F0008307FF22DB0E9A408907090E99400028B8
:103300000BDA0007000F083883081B489B001818C9
:10331000C36993430B43C3617047830804489B0010
:103320001818036893430B430360704740404040C4
:1033300000E400E0004800478004002179410000DB
:1033400035400000574000006B400000950C000025
:1033500089400000A7400000730B0000F5740000D6
:103360007B0C0000C740000039410000F003002141
:10337000D0030021D502000000ED00E0F8B50F46B3
:10338000054600F00BFE002822D13C460090204666
:1033900000F004FE00281BD126462468BC4217D04A
:1033A00000980121401CC9020090884210DC002CCA
:1033B000EDD128686C68002803D000F0EFFD0028EC
:1033C00006D1002C06D0204600F0E8FD002801D0F0
:1033D0008720F8BD72B629686868002908D00028DF
:1033E00004D007606E60012062B6F8BD8820FBE75C
:1033F0002F606E600120F7E7F8B50F46064600F033
:10340000CDFD002801D08720F8BD72B63468002CAD
:1034100005D0204600F0C2FD002814D101E088202C
:103420001CE02079022804D07068A04203D1002556
:103430000BE0892012E02568002D06D0284600F018
:10344000ADFD002801D0872008E03560002D01D1B6
:10345000002070600320207101203C6062B6F8BD3E
:1034600070B50D46044600F099FD002806D120688D
:10347000002805D000F092FD002801D0872070BD03
:1034800072B620680021002808D00279022A07D0ED
:10349000216061602860012062B670BD2960FAE792
:1034A0008920F9E7F8B5044600F078FD002801D03E
:1034B0008720F8BD72B6256860680090002D06D0A0
:1034C000284600F06BFD002803D087263AE08826C6
:1034D00038E0287902280CD0022129712C6862B6C4
:1034E00001260027204600F059FD002803D087263A
:1034F0001BE0892626E060798107890F012902D027
:10350000C043800702D1002060812081002020710B
:103510000098844209D001207F1CC0028742E6DC6B
:103520002468002C01D0AC42DCD168798107890F76
:10353000012902D0C043800702D100206881288180
:103540000020287162B63046F8BD70B50D460446BD
:1035500000F024FD002807D166682068002807D005
:1035600000F01CFD002801D0872070BD002E10D077
:10357000012372B62268002A07D0107900210028A2
:1035800009D0104612686060016062B618462A6071
:1035900070BD882070BD21606160F6E710B50446FB
:1035A000FF48017DFF2906D0FE4889000068415888
:1035B0002046884710BD204600F0F0FC00280ED1C0
:1035C0002468204600F0EAFC002808D1207902286F
:1035D00005D060798007800F022802D004E0002027
:1035E00010BDA0680028FBD002202071204610BD2D
:1035F000EB49497DFF2904D0EA4A890012685158F5
:103600000847002805D00068002804D00179022965
:1036100003D0022070470120704701210171002072
:103620007047DF49897DFF2904D0DE4A890012688E
:103630005158084700280CD0016800290AD0426878
:1036400003238A4208D00A68002A05D002600B7161
:103650000846704700207047002202604260F6E78B
:1036600010B50446CE48C17DFF2906D02038006839
:10367000890041582046884710BD204600F08EFC46
:10368000002806D12068002805D000F087FC00281B
:10369000F2D0012010BD022010BDF7B50346C0488E
:1036A00082B0007EFF2808D0BE4A800012681458FD
:1036B0001846049AA04705B0F0BD0020049C002BDA
:1036C00020600ED01A680227002A70D05479A446D0
:1036D0001479022C05D06546ED43AD0704D00029CE
:1036E0007EDA012005B0F0BD002C15D0032C5ED091
:1036F000042C5CD05589148920200602344314819F
:1037000002241471D488661B64462407361FA40F54
:10371000002904D0012703E000252C46ECE7002710
:10372000E7190097002902DD6718BE4600E0A646AB
:10373000009FBE4224DA5868904201D1002500E083
:1037400015681D60002D01D10020586010890123EB
:103750005B0398431081032010712420002D07D0B3
:103760002A79002A04D1EE88009A361F964202DA9E
:10377000262005B0F0BD2A460025138102231371CF
:10378000894B5D8053190C33002907DB7746B6451A
:1037900004DC3946844F0026BE800DE0361BB64659
:1037A000002905DA0027804EFF43B78003E035E0AB
:1037B0007D4F8E1BBE80714666467B4F36093E703C
:1037C00001D110263E700026BE5765197E705581C6
:1037D000002C10D008252843341B64B27C7000E014
:1037E0000CE0002C07DC1025E4B2A41964B22843D5
:1037F0007C70002CF8DD049C226049E06A4D66462E
:10380000A98065462D07AD0FB6076D18B60F012EBE
:1038100007D0032C02D0D388AB4233DA384605B048
:10382000F0BD002C0DD0032CF8D0177154892D1D3C
:10383000D6886419B44221DD5868904205D100242D
:1038400004E0002454811481EFE714681C60002C0C
:1038500001D100205860032010710420002C05D0F5
:103860002279002A02D1E288AA4202DA062005B0B3
:10387000F0BD0023638123812246277153890C32D6
:103880009B1805E03C461771022E11D013460833F1
:1038900062461207920F05D0012A0FD0022A10D0DB
:1038A000012108438106E2D404990B6005B0F0BD04
:1038B0009368002BECD1204605B0F0BD19705B1C5D
:1038C000F0E719705B1C091219705B1CEAE7FFB581
:1038D000334881B0407EFF2808D0324B80001B68FF
:1038E0001C58049B0198A04705B0F0BD049B002024
:1038F0001B685D89DC88641B241FA14279DD002CD4
:1039000011DD5E190C3600273270761C120A7F1CFE
:10391000A742F9DB244F2D197E78091B341B7C70DC
:10392000082420435D81019C64689C4201D10024ED
:1039300000E01C68019D00272C60002C0BD06579ED
:103940002D07AE0FE588B646AD1B2D1FAC46257979
:10395000002D08D105E00025AC46AE46019D6F6004
:1039600002E08C4500DA00241E8901256D03AE4378
:10397000750BF604F60C6D03761C354304263043B4
:10398000002C22D003261E710126F60335431D812B
:1039900023460324640300251C8102241C7105E0D6
:1039A000F0030021D0030021B4020021994F042626
:1039B0007D801C46BE5F0C34002E0FDB67466645DB
:1039C00009DCB446934F002607E01E711D8104995F
:1039D0000F6002210AE0F61B8E4FBE807646002E55
:1039E00014D0012E06D0022E09D00121084305B0C3
:1039F000F0BD0EE065462570641C012506E06546B5
:103A00002570641C2D122570641C0225049E3360F1
:103A100001E05C190C340026002905DD2270641CCD
:103A2000120A761C8E42F9DB6C18002901DD08228F
:103A30001043784D6A78511A49B26970002909DC3F
:103A400010260022AA56C9B2891849B230436970BB
:103A50000029F8DD5C8105B0F0BDF8B505466E487B
:103A6000807EFF2806D06D498000096809582846E5
:103A70008847F8BD0020002D17D02C68002C16D0E8
:103A80006179674ECA43920713D00A07614B042736
:103A9000DF5F920F8907D319890F01290FD00229FF
:103AA0002CD02046083030601DE00120F8BD0220F7
:103AB000F8BD204600F07BF80021316017E06289F4
:103AC000E188D3181F1D8F4203DD574955484860D0
:103AD000FEE7A2180C323260638122891B1D521C42
:103AE00022818B4201D1042001E001212171410793
:103AF000DED56968A14203D1002102E0A068D2E7C7
:103B000021682960002900D1696003212171F8BD75
:103B100070B505464048C07EFF2806D03F4980006A
:103B2000096809582846884770BD00200122002DE9
:103B30000BD02C68002C08D06179CB439B0706D0B2
:103B40002179022915D0012070BD104670BD204694
:103B500000F02DF84107F9D56968A14201D1002193
:103B600000E021682960002900D1696003212171EA
:103B700070BD227170BD2849097FFF2904D0274AF2
:103B80008900126851580847002809D041798907EF
:103B9000890F012905D0022907D0032901D0083057
:103BA000704741890C300818704780687047F0B43E
:103BB000048945890026620BD20727D0154A0907D8
:103BC0005388C218EF1A8B0FF91A0C320127002BF9
:103BD0000BD0012B04D0022B04D03846F0BC704728
:103BE000117002E0117009125170012149038C43D8
:103BF000E204610BD20C4903521C11430181C188BC
:103C00002D1DA94201D1042600E007713046F0BC09
:103C100070470000B4020021F0030021D00300210E
:103C2000B00200210000008000ED00E010B4030CA1
:103C3000474C9B001B1972B65C68002C01D062B621
:103C4000F9E759615A62586062B610BC704710B407
:103C500004023F48241D72B64368002B01D062B6AF
:103C6000F9E741614262446062B610BC704710B42B
:103C700004023748E41C72B64368002B01D062B6D8
:103C8000F9E741614262446062B610BC70470302CA
:103C90002F489B1C72B64268002A01D062B6F9E731
:103CA0004161436062B67047030229485B1C72B6EB
:103CB0004268002A01D062B6F9E74161436062B60A
:103CC00070470202224872B64168002901D062B6EC
:103CD000F9E7426062B670471E48007881001C48D0
:103CE00008184168002902D1FF2101314160704765
:103CF000042901D30120704770B505460C4672B601
:103D00000120800200F0A3FA62B611490A6820205F
:103D1000002A09D085430D604020002C06DD0D49A6
:103D2000641E0C700C4902E00543F4E70B4908607F
:103D3000002070BD10B506490020086007494020EA
:103D4000086072B60120800200F078FA62B610BDF9
:103D500000700440BA02002100E100E080E100E0D0
:103D6000FCF7BDFF01207049800788606F49012082
:103D7000086030BFFDE710B50446FFF767FA03F0AF
:103D8000E3FBFDF771F9204600F014FA10BD10B501
:103D90006548816A02229143816265490720086073
:103DA000FFF754FA03F0D0FBFDF75EF9002000F0B6
:103DB00001FA10BD5C4C82B0A06901254107490F92
:103DC000481E042803D828468840002704E0FCF752
:103DD00072FF584801274069574908704006800E15
:103DE00056498000085820625548E061012040078C
:103DF000A060666AF0077ED0700F02224C49072847
:103E000005D0300E21287DD0002F76D082E07007BB
:103E1000800F02D001283FD13AE0002F06D0F006F3
:103E200002D4A06A9043A062002705E0F00603D503
:103E3000A06A1043A0620127300701D40720086060
:103E40003006C00F0090FFF701FA03F07DFBFDF78D
:103E50000BF9009800F0AEF9B00601D503F07AFB3B
:103E6000700601D537488571F00402D50120FDF7B1
:103E700058F93005000F05D03005000F1030012132
:103E8000FFF736FF002F47D0A0690007FCD543E0BD
:103E90007005000E012802D0FFF779FF3CE072B6F2
:103EA00057200D4608600020274A0126F6020146E9
:103EB00083181960001DB042FADB244A00208318E1
:103EC0001960001DB042FADB072028600020204A5C
:103ED00001235B0385182960001D9842FADB21222B
:103EE0000020120601231B0385182960001D98423B
:103EF000FADB012002E011E004E009E08007A060A5
:103F000030BFFDE7700405D408689043086001E005
:103F1000FCF7D1FE0F48B047002601E0FFF737FF5E
:103F20003046FFF71DFF00000011044000E100E0F3
:103F300000000440C021084097020021DC960000E8
:103F4000FB3F0000280000210080002100C000216C
:103F500000400021773D000000281BD024498979CA
:103F6000002919D10721490701224118D2049142A1
:103F700012D3DF2109064118D21191420CD31D49F9
:103F800052004118914207D30321490740181102FA
:103F9000884201D3012070470020704710B4810788
:103FA00002D0022010BC70470122014600281BD01D
:103FB0000F4883790020002BF4D107235B07CB182F
:103FC000D404A342EED3DF231B06CB181403A34271
:103FD000E8D3084B5403CB18A342E3D303235B0776
:103FE000C91853059942DDD310BC10467047000034
:103FF0002800002100C0FFDE8307FF22DB0E9A406D
:104000008907090E994000280BDA0007000F0838CD
:104010008308FC489B001818C36993430B43C36192
:1040200070478308F8489B001818036893430B43B4
:1040300003607047F548C068002800D00047F44886
:104040000122017811430170F2480168002901D072
:10405000006800477047F04908200860ED48016893
:10406000002901D0006800477047E848006900282F
:1040700000D00047E84910200860E64801680029A0
:1040800001D0006800477047E148022201781143DF
:104090000170E148D1010160DE480168002901D0CA
:1040A0000068004770470120DB4940020860D8489B
:1040B0000422017811430170D6480168002901D01B
:1040C000006800477047F8B5D448C06AD44DC107AE
:1040D0000227D44E002901D003241CE00007840FDE
:1040E000012C05D0022C0FD1C848807800280ED1B1
:1040F000012004F063FAE87A4008C00702D0706932
:1041000038437061022C02D0032C04D011E001204E
:1041100004F07DFF0DE0E87A4008C00702D0706926
:10412000B8437061002004F072FF0120BA49800298
:104130000860B6488470F8BD10B4B848C06AB94C7D
:1041400080B201050A0F0AD001060B0FB449C97AE3
:104150000909114062690B408A431A436261C00435
:1041600008D5AA480178002904D10121C906A16017
:104170000121017010BC704770B5AB4E3078A94D6D
:10418000C4B20020E86204F066FC3078032810D145
:10419000032C0ED0A248C07A8008C00703D06869FB
:1041A000042188436861A14901200870A04980204A
:1041B000086070BDF8B59F4D07229F4F6A8039682F
:1041C0009E4B194029800A43112149010A433A6054
:1041D0009B4901244C608C618D4B00211960596012
:1041E0009960D960196159619961D9611962954ADB
:1041F00059621160121F11704E1EDE80D160FF23C4
:1042000011615370002801D18F4801728F480374E7
:104210000323437491708E489A03028081718D4804
:10422000048004F0A4FE8C4804707E4804638B492B
:1042300001616888298808433860F8BD7D4A518843
:1042400081435180108808437B4908607047794B4F
:10425000024659888A4301435980188808437649A1
:1042600008601046704770B504467D480D46407B97
:10427000FF2807D07B49800009680A582946204654
:10428000904770BD2820E10700D03820E90701D011
:1042900040210843FFF7DBFFE006734AC00E506180
:1042A000E8065E49C00EC861594B012058700023D2
:1042B000D362086048606D490860486070BDF7B51A
:1042C00084B00020009016462820FFF7C0FF664902
:1042D0000020C86108624862886250498862049878
:1042E0002D286FD278440079001887445D162B6C16
:1042F000C93A4ED6E45D7CF8C96B6B6BF7F6F56B8B
:104300006B6B6B6B6B6B6B6B6B6B6B6BC9F9F3F301
:10431000F3F36B6B7CD6E46CF2003D4802214172F2
:10432000C1720599490701D5012100E00021817082
:104330003A4900204862012704464B49A7204C4DCA
:10434000486236E1324800214172C1720121334A8C
:104350008170516221240227E4050521444D0902A0
:1043600006E12B4804214172C1720599090701D564
:10437000012100E000218170284A002151620C4691
:10438000032785213B4D8900F2E02148002141723D
:10439000C1720321214A8170516221240427E4055E
:1043A0000521334DC901E3E0194800214172C17272
:1043B0001A4A817051620F46112464067D212E4DE8
:1043C000C900D5E003E112480C2141720821C172F5
:1043D00001218170114A0021516221240227E40544
:1043E000264D1421C4E00A480C2141720821C172F3
:1043F00000210A4A8170516221240227E4051F4DE1
:104400001421B5E000ED00E000E400E0BC02002172
:1044100080030021A802002180E100E00060044048
:10442000A800002100110440E402002198020021AC
:1044300000E200E0D002002100000440F8FF00008C
:1044400040600440C0020021404000218002002161
:1044500028000021680000211800002110C200007F
:1044600010040021D00300214050044000500440BB
:1044700000002110B71DC104005B0600000005808C
:10448000F94908204872C87200208870F7494862CC
:1044900002272124E405F64D8BE0F3480A214172FE
:1044A000C17201218170F149002048620227212454
:1044B000E405EF4D7DE0EC480A2141720821C1720C
:1044C00000218170E948416202272124E405E84D7A
:1044D0006FE023E012E003E05CE04BE03AE02BE029
:1044E000E1480A214172C17202218170DF49002036
:1044F000486202272124E405DD4D5AE0DA481621FE
:1045000041720821C172049922398170D749002073
:10451000486202272124E405D54D4AE0D2481421FF
:1045200041720A21C17200218170D0484162022784
:104530002124E405CE4D3CE0CB480E2141720821F8
:10454000C17200218170C948416202272124E4051B
:10455000C74D2EE0C44806214172C1720021C34AF2
:10456000817051620F4611246406C24D7D21C9003D
:1045700001611EE0BC4806214172C1720221BB4AA2
:10458000817051621124002764067D21C900B94D54
:1045900001610EE0B44806214172C1720121B34AA3
:1045A000817051621124002764067D21B14DC9003C
:1045B00001610598C00702D0AF4D2124E40505989C
:1045C00080070AD5A848C17A082904D005E001204F
:1045D000C04307B0F0BD0C21C172002E08D0304698
:1045E000FFF7DCFC002805D00020C04307B0F0BD79
:1045F000002000E030680107090F072920D1C1061B
:1046000004D5FF210131884301210091810606D59F
:1046100001210903884300990222114300914105B9
:10462000C90E1E2903D0904A5172010C91700104E9
:10463000C90E1E2904D08C4A000ED1728B494862E3
:10464000894EF17A707AFFF70EFEB0788B4900023E
:10465000401C886185480022C2621221016288489C
:104660004261707AC106C90E0E2906D03072307AC6
:10467000C106C90E0C2906D008E0902131728021B4
:1046800008437072F3E7802108433072F07AB07209
:10469000022801D18220B0727B497A4808637C48A5
:1046A00040227A490190FBF727FE7B49794E086842
:1046B0004968F160B0607948794980790290B80121
:1046C000411840227548FBF717FE7449029888711B
:1046D000049800282FD0103802284DD871483C3655
:1046E000014634318EC98EC64C3E416CF1640146A0
:1046F00008318EC910368EC6014618318EC9203E4B
:1047000020368EC6826AC16A303E006B32637163A6
:10471000B0636548FF21817001715448416AB1223C
:1047200052011143416201980121008809030843A5
:104730000199088036E05B481036014608318EC981
:104740008EC6014618318EC9203E20368EC6C26AFA
:10475000816A303E006B72633163B0634348416AE3
:10476000B1225201114341620198012100880903DD
:1047700008430199088044E00498012816D049496B
:10478000084678308A6FC96FC7688368F761B3617C
:1047900032617161014610318EC920368EC6303EBD
:1047A000006A30630498052823D02AE03D4810367B
:1047B000014648318EC98EC6014658318EC9203E09
:1047C00020368EC6036FC26E816E303E406FB3637B
:1047D00072633163F0630598400712D501212F48B9
:1047E000C9024186818601228168120511438160D8
:1047F00007E00598000704D5284830228168114356
:104800008160FF2601363046FFF721FD002C01D0E4
:1048100026480460254845603046FFF70FFD0098A4
:1048200007B0F0BD22490A8849880A43024321485B
:10483000026070471E4B024619888A430143198063
:1048400072B6588801431B48016062B61046704733
:10485000174A11888143118072B650880143154868
:10486000016062B6704700008003002100600440D0
:1048700000000580005B0600B71DC10440500440E5
:104880000011044080FF00004060044024990000B3
:1048900068000021A8000021DC970000280000210A
:1048A000E49700005C990000C8000021002004404B
:1048B000D002002100000440FD49088072B64988FA
:1048C0000143FC48016062B67047F7B5FA480C46F0
:1048D000807C1746FF2808D0F849800009680B58EB
:1048E00021460098984703B0F0BD21791820401A5E
:1048F000C6B265793146104604F030FDBF19182064
:104900000022861B002EEEDD681E0123834050002E
:104910000019C08800994843C118E940B954521C95
:104920009642F4DC03B0F0BD70B50446E448417A29
:10493000FF2906D040380068890041582046884742
:1049400070BD0820FFF783FCDE4A916909064D0F10
:10495000DD49097F4908C90704D1DC49C979C9087B
:10496000C90701D0D16801E0D949C96A89058B1509
:10497000116B33221201114021221201914201D107
:10498000FF3B013BFFF75AFCD24800796043ED1D25
:10499000E840401C400859424843092104F0E0FC2B
:1049A00070BDFFB50746C64887B0007AFF280AD019
:1049B000C249800009680A9B0C583846099A089930
:1049C000A0470BB0F0BD01200007874202D30120B1
:1049D0000BB0F0BDBF4A0026BC49D6703223CB5E77
:1049E00030461B01FC1A3423CB5E19017D1A51613C
:1049F000B549097FC90712D02046FFF795FF014648
:104A000009128C467C1AB149342232238A5ECB5E6D
:104A1000C0B29A4203D1AF4A614625465161AD49C1
:104A2000097902290CD90A46624348435210400AC8
:104A3000141A08466843451079434808059000E079
:104A400005970120C0032818000C03909F48049488
:104A5000C06B400FC10712D09C493A268E5FA2B2AC
:104A60002114724371431214891889110C19AAB2C6
:104A70002914724371431214891889114D190A9926
:104A800000290ED10599C00707D088B20A147043D7
:104A900072430014101880114118204604F0E5FA02
:104AA0000A900998002843D18848466F002E74D098
:104AB00089480088C3B20020024601460090029354
:104AC0000190380C5B08DB070FD0844B012798421C
:104AD00000D200277F00BF197F8800977F4F0123F6
:104AE000B84200D20023F35C0193029B9B08DB07D2
:104AF00003D1029BDB08DB0716D04B21490188421A
:104B000001D200200BE09B221201904201D30F2022
:104B100005E0401A80B2052104F022FCC0B2311831
:104B200080088A7A80198179019B029803F0A5FD9B
:104B3000664F3E8E30050AD0664930050979000D72
:104B40004143C903090C0004049003910590644893
:104B500002210170634801636349C97A8908C90762
:104B600003D041690422114341610A9B0093294605
:104B70002046089B039A03F03CFE002800D027E75C
:104B8000F00B14D00820FFF762FBB10BCA0757499E
:104B900009D0049A120C07E0FFE700231A461946D1
:104BA00018460093C2E722148A62FFF747FBF868B1
:104BB000C10713D0474A4108908901234400059852
:104BC0009B03C018C00B1269201A5043C01849003B
:104BD000C00B474AFFF779FE03F038F900200BB00D
:104BE000F0BDF8B53648807AFF2805D033498000FB
:104BF000096808588047F8BD37480088C009C007D1
:104C000002D00024274693E004F092FA2D4907468B
:104C100048688A69096895B24C01C104C6B22B483C
:104C2000C90E008E0C43010505D000050009394668
:104C300003F0CBFA01E004F073FAFC2E12D07C43AF
:104C4000E10064187043014628066A07400F520FBE
:104C5000EB0680189B0FC318080C0022FF2805D90B
:104C6000000A04E07C431C214143EDE708221028A0
:104C700001D3000900E0121D042801D3800800E0E0
:104C8000921C022800D2521C121FD018C01E02D43F
:104C90008440002506E00346103325469D404042EF
:104CA000ADB2C440002A25DB91400F46002629E022
:104CB000D00200210000044030040021D003002174
:104CC00010040021C0500440880000212800002169
:104CD000005304408003002168000021880900007F
:104CE0001800002100110440A80000214050044099
:104CF00000000021104610300B4683405042C14056
:104D00009EB20F46BC4202D92220FEF7DAFF2846A7
:104D100030430DD04920FEF7D4FF0120A91BC0036A
:104D2000814201DB641C03E0711B814200DB7F1CBC
:104D3000FD48A1B28460FD484161210C8161B9B296
:104D4000C161390C0162F8BD30B4F949897BFF2992
:104D500005D0F84A89001268515830BC0847F64916
:104D6000C96B8A0FD20719D0CA00D20A5411444322
:104D700001200004201840148018CAB2C106C90CD2
:104D80000A43EE49C0020988490B49030A43114608
:104D9000020C88B211040843E349486030BC7047F4
:104DA000F0B4E34B9B7AFF2B05D0E24C9B002468C8
:104DB000E358F0BC1847CB05DC0F4B0A5B00CDB2C3
:104DC000002A40D00A060907160F090F002C14D03C
:104DD0000A46C15A0F0A802F12D0002C1ED0012C77
:104DE0002BD0002C1DD0012C12D11403A14316404E
:104DF000340114432202114309E032460E46E8E72B
:104E0000002C07D014011640A14332011143C152B6
:104E1000F0BC7047914316403143F8E70C06240E6E
:104E200007D014011640914334430C43C452F0BCE4
:104E30007047002AFBD02943E9E70C0AD5D1002AA4
:104E4000F5D02A02D7E70121C9036918DFE7B84A7C
:104E50009279FF2A04D0B74B92001B689A581047EA
:104E60004A00B749521C0A60C8600120486000200F
:104E700008607047AE4A127AFF2A04D0AD4B920008
:104E80001B689A5810474A00AD49521C4A61086293
:104E9000012088617047F7B50446AA48A54E007BFB
:104EA00092B0FF2808D0316880000B582046149A31
:104EB0001399984715B0F0BD0027002C73D02046F9
:104EC000FFF76CF8002806D021463220FEF7DFFEFF
:104ED000B81E15B0F0BD149820CC4007C00F02904A
:104EE000149829070006C00F03901498090F0007B3
:104EF000C00F049014988007C00F099014984006C2
:104F0000C00F0A901398C0300B901498C007C00FC0
:104F1000069014988006C00F079013988030089070
:104F200083480D901498C006C00F0E90072900D139
:104F300020CC85480F90E8B20F2870D0E8430006D7
:104F4000000E6CD0002F6ADBA9B22A0C8807800FF4
:104F500006D001281CD0022879D0032853D1D9E1EA
:104F6000080A402807D004980023002806D0774874
:104F700008180260F3E2039B0298F6E7002B42D088
:104F80000805800D20283EDA810013984250E6E2A1
:104F9000D604F60C900B07D001284CD0022879D00B
:104FA000032830D12EE1E8E2080A402809D0049B0A
:104FB000002084460020002B06D089088900634821
:104FC0000CE0029B0398F4E76346002B0AD0090526
:104FD000890D8B19202B03DA13988900081801E03A
:104FE0000227FF43910411D500280DD00021002E87
:104FF00009DD04CC0368150CAB432A401A4304C0F6
:10500000491CB142F5DBAAE2B000F9E000280ED05D
:105010000021002E4BDDCA0702D02D0C01E0A0E2DA
:1050200020CC491CAAB204C0B142F4DB97E2761C42
:1050300070108000E4E0080A402809D0049B002595
:105040000020002B07D08908890040480CE0EEE0E2
:10505000039D029BF4E7002D0AD00905890D8B19E9
:10506000202B03DA13988900081801E00227FF4378
:10507000910412D500280ED00021002E17DD20CC7F
:1050800004CC0368154093431D4320C0491CB14222
:10509000F5DB64E20CE0F000B2E00028B4D00021BF
:1050A000002E04DD04CC491C04C0B142FADB56E2F8
:1050B00089080806C00F0C9005D00B9B01930A9A33
:1050C0000998102304E0089B0698079A019320236F
:1050D000024373D04A06D20F8906890E00920591C9
:1050E000002A03D08919491E491002E0490889198C
:1050F000491EC9B2994208DB0598310401431520C5
:10510000FEF7C5FD0227FF4329E2002857D0002003
:105110000190002E51DD5000401C10900198800736
:1051200016D02D0A15E00000BC0200218051044079
:1051300030040021D003002128000021C0020021FA
:105140004060044010040021680000210000044079
:1051500020CC0C9800280CD00599E8B2090208432D
:1051600080B20099FFF786FE0099012000291BD12B
:1051700019E00599E8B20902084382B20D988079D6
:10518000FF2807D0FF49800009680B581046009996
:105190009847E9E7FC4810990160C260012141602D
:1051A00000210160E0E702200599401880B20590D7
:1051B0000198401C0190B042B0DBD0E133E0002008
:1051C0000C90002E58DD800701D02D0A00E020CC85
:1051D0000599E8B20902084381B2009A0198FFF7E5
:1051E000DFFD00990120002900D102200599401817
:1051F00080B205900C98401C0C90B042E3DBAEE10D
:105200000419ACE10E9800280DD088088119E02916
:1052100003D9310401432D2086E0DC4932460818C9
:10522000214604F033F8F61CB0088000E8E750048B
:10523000C00F0090D00B0C9006D009980B9B8446B1
:1052400001930A98102305E00698089B8446079866
:1052500001932023664606430ED09004800C8E08EE
:10526000410A994202DC710A994206DD2946192059
:10527000FEF70DFD0227FF4371E1614600293CD096
:105280000C99002913D00099FFF7F4FD002E40D0AF
:105290000C98012821D00D988079FF2822D0B94997
:1052A000800009680A5830460099904757E10D99E7
:1052B0008979FF2906D0B34A8900126852580099AB
:1052C0009047E3E700994A00AF49521C0A60C86062
:1052D0000120486000200860D8E730460099FFF7B9
:1052E000C9FD3CE100984100A748491C0160C66027
:1052F000012141600021016031E10146009A0198DD
:10530000FFF74EFD002E04D03146009A0198FFF7BA
:1053100047FD24E10807830F032B08D0022B2FD071
:10532000800F7ED029466C20FEF7B1FC10E1080604
:10533000000F092876D27844007900188744720457
:10534000070A0D0F121518000120400712E0212056
:1053500000060FE0052040070CE000200AE00120D5
:10536000000707E01120000604E00120800701E0AB
:1053700005200007002F5DD1290A8C000443EEE0D0
:105380000806030F0BD0000F012877D002287AD02F
:10539000032870D004286FD005286ED0D8E0149868
:1053A000C00647D58804C017461C4804C517C80B5B
:1053B000012358408446C8046D1CC30F080505D559
:1053C0007349486809684903084301E06F48C06BA6
:1053D0000F9909884908490019430F9B19807107E3
:1053E000AB0719436346DB0719430143674E10B20D
:1053F000F1630C907087149800070BD56046002865
:1054000008D00C9802F0C2FC624AD06110680221F8
:1054100008431060002D0DD00D980C9A807BFF285A
:1054200001E078E094E006D0564980000968095808
:105430001046884793E0F06B810FC90750D0C10038
:10544000C90A4D11554301221204AA1852145118C9
:10545000C2B2C806C00C02434F48C9020088090CFA
:10546000400B4003024390B2090408434B49486093
:1054700075E003E007E015E035E043E00120690A4C
:1054800000070F186BE0A805800F04D0A90A800759
:105490000143434804E04248417949075FD5A90ADE
:1054A00081615CE0290B00206D468023CA4312070E
:1054B00009D00A07120F0E2A13D052002A54CE0622
:1054C00001D51A432A544909401C0428EEDB34480C
:1054D0002978017269784172A9788172E978C1727C
:1054E0003DE00122EEE72E48290D027951438181EA
:1054F000680301D501200743280330D50120400768
:1055000007432CE00120E90B80070818F907C90FB1
:1055100007460F4323E00E98002820D0C80B49040B
:10552000490DE02901D34C2010E000280BD0100ACF
:1055300006D0164D02406B5C83431A436A540EE05A
:10554000124842540BE0C80705D03020FEF7ACFBF0
:105550000227FF4303E049080C484900425220CC8F
:10556000E9E41498C00702D00749002008601498A5
:10557000800702D50448002141611498000720D516
:1055800002480FE0D00300214060044028000021C1
:10559000C050044000300440C0020021BC02002181
:1055A00080030021C06B800FC0070DD0F849F94A75
:1055B00008885268C004C00C07235B031A401043DC
:1055C0000880384615B0F0BDF24A116880B209046F
:1055D00008435168000C89B200040843EE49486052
:1055E000EFE7F8B58446ED481346C07AFF2807D0A8
:1055F000EB4A8000126814581A466046A047F8BD6E
:105600005D0718226D0F062D02DD0020C043F8BD96
:10561000D808C407E34F0120002C01D0E24C04E07D
:10562000052D0CD0062D0CD0E04C002D0DD0012501
:10563000ED032C43BD69ADB22E0704D005E0DC4C70
:10564000F5E7DC4CF3E70543BD61BC621809C4070C
:105650009809002C03D0C00704D1192202E0C0072A
:1056600000D13822D809C407580A002C03D0C0073B
:1056700005D1022002E0C00701D140200243980A70
:10568000C00701D180200243CB4D686A84B26046D6
:10569000FFF701FC696A89B2A14205D049094901B5
:1056A000E206D20E11436962C449C54A8969914232
:1056B000ADD10320C043F8BD30B504460D461820D7
:1056C000FEF7C5FDBF484169026A09041143002C79
:1056D00001DB62004261BC4C621E954200D26C1C30
:1056E00004620120B94A8002D061084630BD30B55D
:1056F00004460D466020FEF7AAFDAF48C169826AE4
:1057000009041143002C01DB6200C261AE4C621E31
:10571000954200D26C1C84621022C260084630BDE3
:10572000F0B4020C0B0CAA4EAA4F0125ED03AA42BD
:1057300002D2346A002CFAD0AB4202D2FC69002CAF
:10574000F5D0AA4203D29F4C626180B22062AB4284
:1057500003D29948C36189B28162F0BC70470122CB
:10576000D20790422AD2914228D2F0B40122934B20
:1057700084B210041A72241889B25A720D189A72DF
:10578000DA72200C290C924E924FD303984202D227
:10579000326A002AFAD0994202D2FA69002AF5D078
:1057A000984203D2874A5061A0B21062994203D254
:1057B0008148C161A9B28162F0BC704770478649D7
:1057C0007548CA6B4068920F724BD20714D0896833
:1057D000490DC90710D0010C4A0181B2C804C00E9E
:1057E0000243500042091A601F221202C006914370
:1057F000C00C014359607047010C196080B25860B9
:105800007047F8B507466548807BFF2806D0644995
:1058100080000968095838468847F8BD674E282037
:10582000747AF57A81222146114200D03820294627
:10583000114201D040210843FEF709FDE10661480D
:10584000C90E4161E9065C4AC90ED1610021C163FC
:10585000C1620120106050605C4803240460446011
:10586000384601F01CFD7470FFF7A9FFF8BD5B49D5
:10587000497DFF2904D04A4A8900126851580847D7
:1058800045494A78FF2A04D1554AD27A1207120FA5
:105890004A7054498875704710B54048C07BFF284E
:1058A00005D03F49800009680858804710BD4E4820
:1058B0000078022806D05920FEF703FA4C494B48DD
:1058C0004860FEE74B48407B002801D0FFF7CFFF40
:1058D00003F0D7FB4949484808600D2048490002B9
:1058E000086035480021C1622B4A9170334A5179D2
:1058F000490702D50EF0A4F801E013210162907867
:1059000030490002801C88613E490A2008703E49E7
:10591000086310BD70B52149097CFF2905D0204AD4
:10592000890012685158884770BD244C6179A56977
:105930004A07D60F0022A261344A1288D20502D546
:10594000042211436171FF221E320021FFF7A3FAE6
:10595000FB2200280AD1A169002905D0890F02295C
:10596000E2D16179114006E00320C043A56161796D
:105970001140B2001143617170BD70B50748407CA1
:10598000FF2845D00649800009680858804770BD47
:10599000C0020021C0500440BC02002110040021BC
:1059A000D0030021806004400104000021040000B5
:1059B000787300006831000000600440800300211B
:1059C000FFFF000040500440FF030000005004406F
:1059D00040530440C06004402800002130040021EE
:1059E0000062084040620840E3020021000000809D
:1059F00000ED00E0A80000210C0D000080E200E0B6
:105A000000E100E018000021001104409A0200218A
:105A1000FD4E2820347AB57A81222146114200D0E9
:105A200038202946114201D040210843FEF70FFCDF
:105A3000E006F649C00E4861EA06F548D20EC2619A
:105A40000022CA62012101604160F249032008601E
:105A50004860FFF7B4FEFFF7C4F8F049EE4ACA62A7
:105A60003078830603D50A63DF21084030700220B6
:105A7000707070BDF8B5EA48807CFF2805D0E94910
:105A80008000096808588047F8BDE7480078032877
:105A900006D00820FEF715F9E549E4484860FEE71E
:105AA000E44C207B002801D0FFF7E1FEE2480188AA
:105AB0008A0AD20702D1C07A002804D00809C00798
:105AC00001D003F0DEFADD4800260670CF4F3E62BB
:105AD000DB4D102028600420286080012860012010
